{
  "contractName": "Vote",
  "abi": [
    {
      "constant": true,
      "inputs": [],
      "name": "COST_PER_VOTE",
      "outputs": [
        {
          "name": "",
          "type": "uint256"
        }
      ],
      "payable": false,
      "stateMutability": "view",
      "type": "function"
    },
    {
      "anonymous": false,
      "inputs": [
        {
          "indexed": false,
          "name": "_voter",
          "type": "address"
        }
      ],
      "name": "VoteYes",
      "type": "event"
    },
    {
      "anonymous": false,
      "inputs": [
        {
          "indexed": false,
          "name": "_voter",
          "type": "address"
        }
      ],
      "name": "VoteNo",
      "type": "event"
    },
    {
      "constant": false,
      "inputs": [],
      "name": "voteYes",
      "outputs": [],
      "payable": true,
      "stateMutability": "payable",
      "type": "function"
    },
    {
      "constant": false,
      "inputs": [],
      "name": "voteNo",
      "outputs": [],
      "payable": true,
      "stateMutability": "payable",
      "type": "function"
    },
    {
      "constant": true,
      "inputs": [],
      "name": "getVotedYes",
      "outputs": [
        {
          "name": "result",
          "type": "uint256"
        }
      ],
      "payable": false,
      "stateMutability": "view",
      "type": "function"
    },
    {
      "constant": true,
      "inputs": [],
      "name": "getVotedNo",
      "outputs": [
        {
          "name": "result",
          "type": "uint256"
        }
      ],
      "payable": false,
      "stateMutability": "view",
      "type": "function"
    },
    {
      "constant": true,
      "inputs": [],
      "name": "getOwner",
      "outputs": [
        {
          "name": "result",
          "type": "address"
        }
      ],
      "payable": false,
      "stateMutability": "view",
      "type": "function"
    },
    {
      "constant": true,
      "inputs": [],
      "name": "alreadyVote",
      "outputs": [
        {
          "name": "result",
          "type": "bool"
        }
      ],
      "payable": false,
      "stateMutability": "view",
      "type": "function"
    },
    {
      "constant": true,
      "inputs": [],
      "name": "myVote",
      "outputs": [
        {
          "name": "result",
          "type": "bool"
        }
      ],
      "payable": false,
      "stateMutability": "view",
      "type": "function"
    },
    {
      "constant": true,
      "inputs": [],
      "name": "getCostPerVote",
      "outputs": [
        {
          "name": "result",
          "type": "uint256"
        }
      ],
      "payable": false,
      "stateMutability": "pure",
      "type": "function"
    }
  ],
  "bytecode": "0x608060405260008055600060015534801561001957600080fd5b50610743806100296000396000f300608060405260043610610099576000357c0100000000000000000000000000000000000000000000000000000000900463ffffffff168063028da65d1461009e5780633cb22381146100c957806341c12a70146100f45780637197de5b146100fe578063798d416814610129578063893d20e8146101545780638f4813d3146101ab57806390cf581c146101da578063c3e91345146101e4575b600080fd5b3480156100aa57600080fd5b506100b3610213565b6040518082815260200191505060405180910390f35b3480156100d557600080fd5b506100de61021d565b6040518082815260200191505060405180910390f35b6100fc61022c565b005b34801561010a57600080fd5b5061011361043d565b6040518082815260200191505060405180910390f35b34801561013557600080fd5b5061013e610448565b6040518082815260200191505060405180910390f35b34801561016057600080fd5b50610169610451565b604051808273ffffffffffffffffffffffffffffffffffffffff1673ffffffffffffffffffffffffffffffffffffffff16815260200191505060405180910390f35b3480156101b757600080fd5b506101c0610459565b604051808215151515815260200191505060405180910390f35b6101e26104b0565b005b3480156101f057600080fd5b506101f96106c0565b604051808215151515815260200191505060405180910390f35b6000600154905090565b6000662386f26fc10000905090565b662386f26fc10000341415156102aa576040517f08c379a00000000000000000000000000000000000000000000000000000000081526004018080602001828103825260208152602001807f416d6f756e7420746f20706179206d75737420626520302e303120657468657281525060200191505060405180910390fd5b60001515600260003373ffffffffffffffffffffffffffffffffffffffff1673ffffffffffffffffffffffffffffffffffffffff16815260200190815260200160002060000160019054906101000a900460ff161515141515610375576040517f08c379a000000000000000000000000000000000000000000000000000000000815260040180806020018281038252600c8152602001807f416c726561647920766f7465000000000000000000000000000000000000000081525060200191505060405180910390fd5b6000600260003373ffffffffffffffffffffffffffffffffffffffff1673ffffffffffffffffffffffffffffffffffffffff16815260200190815260200160002060000160006101000a81548160ff0219169083151502179055506001600260003373ffffffffffffffffffffffffffffffffffffffff1673ffffffffffffffffffffffffffffffffffffffff16815260200190815260200160002060000160016101000a81548160ff02191690831515021790555060016000815460010191905081905550565b662386f26fc1000081565b60008054905090565b600033905090565b6000600260003373ffffffffffffffffffffffffffffffffffffffff1673ffffffffffffffffffffffffffffffffffffffff16815260200190815260200160002060000160019054906101000a900460ff16905090565b662386f26fc100003414151561052e576040517f08c379a00000000000000000000000000000000000000000000000000000000081526004018080602001828103825260208152602001807f416d6f756e7420746f20706179206d75737420626520302e303120657468657281525060200191505060405180910390fd5b60001515600260003373ffffffffffffffffffffffffffffffffffffffff1673ffffffffffffffffffffffffffffffffffffffff16815260200190815260200160002060000160019054906101000a900460ff1615151415156105f9576040517f08c379a000000000000000000000000000000000000000000000000000000000815260040180806020018281038252600c8152602001807f416c726561647920766f7465000000000000000000000000000000000000000081525060200191505060405180910390fd5b6001600260003373ffffffffffffffffffffffffffffffffffffffff1673ffffffffffffffffffffffffffffffffffffffff16815260200190815260200160002060000160006101000a81548160ff0219169083151502179055506001600260003373ffffffffffffffffffffffffffffffffffffffff1673ffffffffffffffffffffffffffffffffffffffff16815260200190815260200160002060000160016101000a81548160ff021916908315150217905550600080815460010191905081905550565b6000600260003373ffffffffffffffffffffffffffffffffffffffff1673ffffffffffffffffffffffffffffffffffffffff16815260200190815260200160002060000160009054906101000a900460ff169050905600a165627a7a72305820b20a4800b32c3adf8c936218fa8df8e38bd681d0c5efd106a1cbad96e783d2d90029",
  "source": "pragma solidity 0.4.23;\n\ncontract Vote {\n\n    /**\n    * Variables that accumulate quantities by categories 'yes' or 'no'\n    */\n    uint votedYes = 0;\n    uint votedNo = 0;\n\n    struct Response {\n        bool vote;\n        bool doit;\n    }\n\n    /**\n    * Constant that keeps the cost of every voting\n    */\n    uint public constant COST_PER_VOTE = 0.01 ether;\n\n    /**\n    * Collection of votes\n    */\n    mapping(address => Response) votes;\n\n    /**\n    * Events\n    */\n    event VoteYes(address _voter);\n    event VoteNo(address _voter);\n\n    /**\n    * Function that allows to vote for 'yes'\n    */\n    function voteYes() checkValue payable public {\n        // Check with require if address already vote\n        require(votes[msg.sender].doit == false, \"Already vote\");\n\n        votes[msg.sender].vote = true;\n        votes[msg.sender].doit = true;\n        ++votedYes;\n    }\n\n    /**\n    * Function that allows to vote for 'no'\n    */\n    function voteNo() checkValue payable public {\n        // Check with require if address already vote\n        require(votes[msg.sender].doit == false, \"Already vote\");\n\n        votes[msg.sender].vote = false;\n        votes[msg.sender].doit = true;\n        ++votedNo;\n    }\n\n    /**\n    * Function that gets the number of positive votes\n    */\n    function getVotedYes() public view returns (uint result){\n        result = votedYes;\n    }\n\n    /**\n    * Function that gets the number of negative votes\n    */\n    function getVotedNo() public view returns (uint result){\n        result = votedNo;\n    }\n\n    /**\n    * Refund the excess value back to sender\n    */\n    modifier checkValue() {\n        require(msg.value == COST_PER_VOTE, \"Amount to pay must be 0.01 ether\");\n        _;\n    }\n\n    /**\n    * Get Owner\n    */\n    function getOwner() public view returns (address result){\n        result = msg.sender;\n    }\n\n    /**\n    * Check if the user already vote\n    */\n    function alreadyVote() public view returns (bool result){\n        result = votes[msg.sender].doit;\n    }\n\n    /**\n    * Check the user vote\n    */\n    function myVote() public view returns (bool result){\n        result = votes[msg.sender].vote;\n    }\n\n    /**\n    * Function that gets the cost\n    */\n    function getCostPerVote() public pure returns (uint result){\n        result = COST_PER_VOTE;\n    }\n\n}\n",
  "sourcePath": "/Users/marianoaguero/Proyects/protofire-dapp-test-mariano-aguero/dapp/contracts/Vote.sol",
  "compiler": {
    "name": "solc",
    "version": "0.4.23+commit.124ca40d.Emscripten.clang"
  },
  "schemaVersion": "2.0.0",
  "updatedAt": "2018-05-09T01:52:39.395Z"
}