{
  "contractName": "Vote",
  "abi": [
    {
      "constant": true,
      "inputs": [],
      "name": "COST_PER_VOTE",
      "outputs": [
        {
          "name": "",
          "type": "uint256"
        }
      ],
      "payable": false,
      "stateMutability": "view",
      "type": "function"
    },
    {
      "anonymous": false,
      "inputs": [
        {
          "indexed": false,
          "name": "_voter",
          "type": "address"
        }
      ],
      "name": "VoteYes",
      "type": "event"
    },
    {
      "anonymous": false,
      "inputs": [
        {
          "indexed": false,
          "name": "_voter",
          "type": "address"
        }
      ],
      "name": "VoteNo",
      "type": "event"
    },
    {
      "constant": false,
      "inputs": [],
      "name": "voteYes",
      "outputs": [],
      "payable": false,
      "stateMutability": "nonpayable",
      "type": "function"
    },
    {
      "constant": false,
      "inputs": [],
      "name": "voteNo",
      "outputs": [],
      "payable": false,
      "stateMutability": "nonpayable",
      "type": "function"
    },
    {
      "constant": true,
      "inputs": [],
      "name": "getVotedYes",
      "outputs": [
        {
          "name": "result",
          "type": "uint256"
        }
      ],
      "payable": false,
      "stateMutability": "view",
      "type": "function"
    },
    {
      "constant": true,
      "inputs": [],
      "name": "getVotedNo",
      "outputs": [
        {
          "name": "result",
          "type": "uint256"
        }
      ],
      "payable": false,
      "stateMutability": "view",
      "type": "function"
    },
    {
      "constant": true,
      "inputs": [],
      "name": "getOwner",
      "outputs": [
        {
          "name": "result",
          "type": "address"
        }
      ],
      "payable": false,
      "stateMutability": "view",
      "type": "function"
    },
    {
      "constant": true,
      "inputs": [],
      "name": "alreadyVote",
      "outputs": [
        {
          "name": "result",
          "type": "bool"
        }
      ],
      "payable": false,
      "stateMutability": "view",
      "type": "function"
    },
    {
      "constant": true,
      "inputs": [],
      "name": "myVote",
      "outputs": [
        {
          "name": "result",
          "type": "bool"
        }
      ],
      "payable": false,
      "stateMutability": "view",
      "type": "function"
    }
  ],
  "bytecode": "0x608060405260008055600060015534801561001957600080fd5b5061061c806100296000396000f30060806040526004361061008e576000357c0100000000000000000000000000000000000000000000000000000000900463ffffffff168063028da65d1461009357806341c12a70146100be5780637197de5b146100d5578063798d416814610100578063893d20e81461012b5780638f4813d31461018257806390cf581c146101b1578063c3e91345146101c8575b600080fd5b34801561009f57600080fd5b506100a86101f7565b6040518082815260200191505060405180910390f35b3480156100ca57600080fd5b506100d3610201565b005b3480156100e157600080fd5b506100ea610394565b6040518082815260200191505060405180910390f35b34801561010c57600080fd5b5061011561039f565b6040518082815260200191505060405180910390f35b34801561013757600080fd5b506101406103a8565b604051808273ffffffffffffffffffffffffffffffffffffffff1673ffffffffffffffffffffffffffffffffffffffff16815260200191505060405180910390f35b34801561018e57600080fd5b506101976103b0565b604051808215151515815260200191505060405180910390f35b3480156101bd57600080fd5b506101c6610407565b005b3480156101d457600080fd5b506101dd610599565b604051808215151515815260200191505060405180910390f35b6000600154905090565b60001515600260003373ffffffffffffffffffffffffffffffffffffffff1673ffffffffffffffffffffffffffffffffffffffff16815260200190815260200160002060000160019054906101000a900460ff1615151415156102cc576040517f08c379a000000000000000000000000000000000000000000000000000000000815260040180806020018281038252600c8152602001807f416c726561647920766f7465000000000000000000000000000000000000000081525060200191505060405180910390fd5b6000600260003373ffffffffffffffffffffffffffffffffffffffff1673ffffffffffffffffffffffffffffffffffffffff16815260200190815260200160002060000160006101000a81548160ff0219169083151502179055506001600260003373ffffffffffffffffffffffffffffffffffffffff1673ffffffffffffffffffffffffffffffffffffffff16815260200190815260200160002060000160016101000a81548160ff02191690831515021790555060016000815460010191905081905550565b662386f26fc1000081565b60008054905090565b600033905090565b6000600260003373ffffffffffffffffffffffffffffffffffffffff1673ffffffffffffffffffffffffffffffffffffffff16815260200190815260200160002060000160019054906101000a900460ff16905090565b60001515600260003373ffffffffffffffffffffffffffffffffffffffff1673ffffffffffffffffffffffffffffffffffffffff16815260200190815260200160002060000160019054906101000a900460ff1615151415156104d2576040517f08c379a000000000000000000000000000000000000000000000000000000000815260040180806020018281038252600c8152602001807f416c726561647920766f7465000000000000000000000000000000000000000081525060200191505060405180910390fd5b6001600260003373ffffffffffffffffffffffffffffffffffffffff1673ffffffffffffffffffffffffffffffffffffffff16815260200190815260200160002060000160006101000a81548160ff0219169083151502179055506001600260003373ffffffffffffffffffffffffffffffffffffffff1673ffffffffffffffffffffffffffffffffffffffff16815260200190815260200160002060000160016101000a81548160ff021916908315150217905550600080815460010191905081905550565b6000600260003373ffffffffffffffffffffffffffffffffffffffff1673ffffffffffffffffffffffffffffffffffffffff16815260200190815260200160002060000160009054906101000a900460ff169050905600a165627a7a72305820c11a584665ac4ebdffa4543bd3340416b1f7d039fc61b289234677f4bd288f470029",
  "source": "pragma solidity ^0.4.18;\n\ncontract Vote {\n\n  /**\n   * Variables that accumulate quantities by categories 'yes' or 'no'\n   */\n  uint votedYes = 0;\n  uint votedNo = 0;\n\n  struct Response {\n    bool vote;\n    bool doit;\n  }\n\n  /**\n   * Constant that keeps the cost of every voting\n   */\n  uint public constant COST_PER_VOTE = 0.01 ether;\n\n  /**\n   * Collection of votes\n   */\n  mapping(address => Response) votes;\n\n  /**\n   * Events\n   */\n  event VoteYes(address _voter);\n  event VoteNo(address _voter);\n\n  /**\n   * Function that allows to vote for 'yes'\n   */\n  function voteYes()  public {\n\n    require(votes[msg.sender].doit == false, 'Already vote');\n\n    votes[msg.sender].vote = true;\n    votes[msg.sender].doit = true;\n    ++votedYes;\n  }\n\n  /**\n   * Function that allows to vote for 'no'\n   * checkValue payable\n   */\n  function voteNo()  public {\n\n    require(votes[msg.sender].doit == false, 'Already vote');\n\n    votes[msg.sender].vote = false;\n    votes[msg.sender].doit = true;\n    ++votedNo;\n  }\n\n  /**\n   * Function that gets the number of positive votes\n   */\n  function getVotedYes() public constant returns (uint result){\n    result = votedYes;\n  }\n\n  /**\n   * Function that gets the number of negative votes\n   */\n  function getVotedNo() public constant returns (uint result){\n    result = votedNo;\n  }\n\n  /**\n   * Refund the excess value back to sender\n   */\n  modifier checkValue() {\n    require(msg.value == COST_PER_VOTE, 'Amount to pay must be 0.01 ether');\n    _;\n  }\n\n  /**\n   * Get Owner\n   */\n  function getOwner() public constant returns (address result){\n    result = msg.sender;\n  }\n\n  /**\n   * Check if the user already vote\n   */\n  function alreadyVote() public constant returns (bool result){\n    result = votes[msg.sender].doit;\n  }\n\n  /**\n   * Check the user vote\n   */\n  function myVote() public constant returns (bool result){\n    result = votes[msg.sender].vote;\n  }\n}\n",
  "sourcePath": "/Users/marianoaguero/Proyects/protofire-dapp-test-mariano-aguero/dapp/contracts/Vote.sol",
  "compiler": {
    "name": "solc",
    "version": "0.4.23+commit.124ca40d.Emscripten.clang"
  },
  "schemaVersion": "2.0.0",
  "updatedAt": "2018-05-06T17:59:04.315Z"
}